:020000040800F2
:10000000100C002045010008614F00084144000821
:100010005D4F0008F50B00083D630008000000007C
:10002000000000000000000000000000255700084C
:10003000C90C000800000000135500080158000812
:100040005F0100085F0100085F0100085F01000810
:100050005F0100085F0100085F0100085F01000800
:100060005F0100085F0100085F0100085F010008F0
:100070005F0100085F0100087D0C00088D0C00087E
:100080005F0100085F010008690900085F010008BE
:100090005F0100085F0100085F0100085F010008C0
:1000A0005F0100085F0100085F0100085F010008B0
:1000B0005F0100085F0100085F0100085F010008A0
:1000C0005F0100085F0100085F0100085F01000890
:1000D0005F0100082D6300085F0100085F01000850
:1000E0005F0100085F0100085F0100085F01000870
:1000F0005F0100085F0100085F0100085F01000860
:100100005F0100085F0100085F0100085F0100084F
:100110005F0100085F0100088D5800085F010008BA
:100120005F0100085F0100085F0100085F0100082F
:10013000DFF80CD000F006FC00480047A16500087D
:10014000100C00200648804706480047FEE7FEE7FF
:10015000FEE7FEE7FEE7FEE7FEE7FEE7FEE7FEE777
:100160008B58000831010008202A04DB203A21FACC
:1001700002F00021704721FA02F3D040C2F12002C0
:100180009140084319467047D2B201E000F8012BB4
:10019000491EFBD270470022F6E710B513460A4607
:1001A00004461946FFF7F0FF204610BDF0B480EA80
:1001B0000102D40F4200B2EB410F02D202460846C0
:1001C00011464A0042D0C30DDDB2C1F3C752AD1A89
:1001D000202D35DAC1F3160141F4000204B1524278
:1001E000C5F1200602FA06F12A411044B3EBD05FB4
:1001F00023D0C4B1012DA0EBC35009DCF0BC4FF0FB
:10020000004202EAC352DBB200F5000000F0CABAB5
:10021000400000F1807000EBC350A0F1807040EA14
:10022000D170490009E0490841EAC071A0EBC35010
:1002300000F50000400800EBC350F0BC00F0A9BA84
:100240006142012202EB4101001BF6E7F0BC70475E
:1002500081F00041AAE780F00040A7E780EA0102B0
:1002600010B502F00043400022D04A001FD0010E1A
:1002700001EB1261C0F35600C2F3560240F40000D5
:1002800042F40002A0FB022000047F39140400D0D5
:10029000401C50EA124001D44000491EC2B20C0674
:1002A00004EBD010401C4008802A02D003E000205C
:1002B00010BD20F00100002900DA0020184310BD15
:1002C00030B480EA010202F0004530F0004221F033
:1002D000004013D090B1C30DD40DC2F31601C0F38A
:1002E0001600E41A41F4000140F400027D3491420A
:1002F00001D3641C00E04900002C02DA30BC00206D
:1003000070474FF400000023914201D3891A034340
:1003100040084FEA4101F7D151B1914202D14FF06B
:10032000004105E002D24FF0010101E06FF0010150
:1003300003EBC450284430BC00F02BBA2DE9FE4F2B
:10034000804681EA0300C00F0C46009021F0004176
:1003500023F00045B8EB0200A94105D240462146F2
:1003600090461C460B46024623F00040104347D0FF
:10037000270DC7F30A00C3F30A510290401A0190F7
:1003800040286BDAC3F3130040F4801B00989246B8
:1003900020B10023D2EB030A63EB0B0B0198594603
:1003A000C0F14002504600F0D3F906460D465046D3
:1003B0005946019A00F0DBF910EB08006141002476
:1003C00087EA115284EAE7731A4340D0009A62B375
:1003D000019A012A4FEA075215DC001B61EB02016A
:1003E0004FF0004202EA0752CDE90042001C41F5FD
:1003F000801132462B4600F012FA03B0BDE8F08FB0
:1004000040462146F9E7001B61EB0201001C41F563
:10041000801300185B412018A2F5001747EB030179
:1004200040EAD570B6196D4111E06D084FEA360605
:1004300045EAC0754FEA0752001B61EB0201001C40
:1004400041F5801149084FEA300000195141324608
:100450002B4603B0BDE8F04F00F0D2B9009801225E
:1004600040000023D0EB020263EBE07300982146CA
:100470004FEAE074B8EB000061EB0401E9E783F0B8
:1004800000435BE781F0004158E72DE9FE4F81EA28
:10049000030404F0004421F0004100944FF0000BED
:1004A00023F0004350EA01045ED052EA03045BD01B
:1004B000C3F30A54C1F30A552C44A4F2F334019453
:1004C000A0FB0254C1F3130141F48011C3F31303E1
:1004D00043F4801301FB024400FB034E840A970A95
:1004E00044EA815447EA8357A4FB076802958D0AC2
:1004F00005FB07854FEA932C04FB0C542705029D4E
:100500004FEA065847EA1637B5EB08056EEB070CBD
:10051000870E920E47EA811742EA8312A7FB020177
:10052000B6EB0B0164EB00042B0D43EA0C335E18B1
:1005300044EB1C50DA465146E7FB0201C5F31304B5
:100540004FEA0B3343EA14534FEA0432019C43EA67
:100550000603A4F10C040294009CCDE900B400F061
:100560005EF903B0BDE8F08F00200146F9E72DE900
:10057000F04D81EA030404F0004B21F000451446DD
:100580004FF0000A23F0004150EA050220D054EA5F
:1005900001021DD0C5F30A570246C5F31303C1F388
:1005A0001300C1F30A5640F4801543F48013A7EBFF
:1005B0000608101BD64608F2FD3873EB050002D37F
:1005C00008F1010801E092185B41B8F1000F03DA6D
:1005D00000200146BDE8F08D00204FF48011064652
:1005E00084460EE0171B73EB050705D3121B63EB64
:1005F000050306434CEA010C49084FEA3000921803
:100600005B4150EA0107EDD152EA030012D082EAC1
:10061000040083EA0501084305D0101BAB4106D254
:100620000122002306E000224FF0004302E06FF0B9
:10063000010253101AEB06004CEB085110EB0A00B4
:1006400041EB0B01BDE8F04D00F0DAB89623002233
:10065000114600F0A7B80EB540F2334102910021D7
:10066000CDE900110A460B4600F0D9F803B000BDF1
:1006700020F00040C10DC0F3160040F400007F29B7
:1006800001DA00207047962903DCC1F19601C840C9
:100690007047963988407047C1F30A5210B5C1F3CC
:1006A000130140F2FF3341F480119A4201DA002035
:1006B00010BD40F233439A42A2F2334203DC52426D
:1006C000FFF752FD10BD904010BD00F0004230F029
:1006D00000400AD0C10D01F56071C0F3160042EA76
:1006E0000151C2084007114370470020014670477E
:1006F00030B5041E71F1000404DB4FF000444042A9
:1007000064EB0101141E73F1000405DB1C464FF07D
:100710000043524263EB04038B4208BF824230BD68
:1007200030B5041E71F1000404DB4FF00044404278
:1007300064EB0101141E73F1000405DB1C464FF04D
:100740000043524263EB0403994208BF904230BD1C
:10075000202A04DB203A00FA02F100207047914081
:10076000C2F1200320FA03F3194390407047202A76
:1007700006DBCB17203A41FA02F043EAE07306E0C9
:1007800041FA02F3D040C2F12002914008431946D9
:1007900070470029A8BF7047401C490008BF20F0DF
:1007A0000100704710B4B0FA80FC00FA0CF050EA77
:1007B000010404BF10BC704749B1CCF1200421FAF8
:1007C00004F411FA0CF118BF012121430843A3EBF3
:1007D0000C01CB1D4FEA00614FEA102042BF002000
:1007E00010BC704700EBC35010440029A4BF10BCDC
:1007F0007047401C490008BF20F0010010BC704742
:1008000010B5141E73F1000408DA401C41F1000118
:1008100092185B411A4301D120F0010010BD2DE96F
:10082000F04D92469B4611B1B1FA81F202E0B0FA66
:1008300080F220329046FFF78BFF04460F4640EAD5
:100840000A0041EA0B0153465A46084313D01146A9
:1008500053EA010019D0C8F140025046FFF784FC6A
:1008600005460E46504659464246FFF771FF08437B
:1008700005D0012004E020463946BDE8F08D002077
:10088000054346EAE0762C4337430A986305E40AB9
:10089000A0EB08000022FD0A44EA47540A3002D5C2
:1008A00000200146E9E7010510196941DDE9084525
:1008B00000196941BDE8F04DA2E700002DE9F041C3
:1008C000054621F000400C46284309D0C4F30A50E5
:1008D00040F23341884205DD28462146BDE8F081DB
:1008E0002846FBE740F2FE31884210DC0CDB4FEA81
:1008F000043040EA155050EA053105D0104804F0A4
:10090000004101430020E9E700200146E6E7A0F2AC
:1009100033404642C6F1400228462146FFF718FF01
:1009200007468846284621463246FFF71DFC4346C7
:100930003A46FFF765FF3246BDE8F041FFF708BFD2
:100940000000F03F064C074D06E0E06840F0010370
:1009500094E8070098471034AC42F6D3FFF7ECFB5D
:10096000C0700008E070000810B5024800F0FCFB01
:1009700010BD0000E000002070B50446002520688E
:10098000806800F0010018B32068806820F0010042
:100990002168886001F080FC054613E001F07CFCD2
:1009A000401B02280ED92068806800F0010048B181
:1009B000A06A40F01000A062E06A40F00100E0622E
:1009C000012070BD2068806800F001000028E5D19A
:1009D0000020F6E770B505466C6AA06A00F050008A
:1009E000E0B9A06A40F40070A0622068806800F45A
:1009F0006020B0F5602F0DD1207B58B9A06A20F49B
:100A00008070A062A06A00F4805018B9A06A40F01B
:100A10000100A062204600F097FB03E0206A016B12
:100A20002846884770BD70B505466C6AA06A40F0DC
:100A30004000A062E06A40F00400E062204600F05E
:100A400092FB70BD70B50446656A284600F08AFBCB
:100A500070BD000038B504460025002000902068D5
:100A6000806800F0010078BB2068806840F00100D9
:100A700021688860194800681949B0FBF1F00090BE
:100A800002E00098401E009000980028F9D101F083
:100A900003FC054619E001F0FFFB401B022814D9B6
:100AA0002068806800F0010078B9A06A40F010006A
:100AB000A062E06A40F00100E06200BF002084F81C
:100AC000240000BF012038BD05E02068806800F0E8
:100AD00001000028DFD00020F5E7000030000020F2
:100AE00040420F000EB5282001F00AFA4FF0FF3007
:100AF000012302AA702100900A4801F0BBFC9DF876
:100B0000080000F0080060B907A0006801904FF0ED
:100B1000FF30032301AA70210090024801F060FE1B
:100B200000BF0EBD68010020BE0800002DE9FF4790
:100B300004460D462AA0006803904FF0FF300323BF
:100B400003AA70210090274801F04AFE4B2001F0D3
:100B5000D7F94FF0FF30062301AA702100902148F9
:100B600001F088FC9DF8040000F08000A8BB00267E
:100B70009DF8070000099DF8061000EB01109DF894
:100B8000051000EB01363046FFF760FD8046164940
:100B9000FFF764FB07464FF09341FFF791FB286096
:100BA0009DF807000007000B9DF8081000EB0120DE
:100BB0009DF8091046183046FFF748FD81460B495D
:100BC000FFF74CFB80464FF09341FFF779FB074658
:100BD0000749FFF73DFB206000BFBDE8FF8700002D
:100BE000AC330000680100200000C8420000484308
:100BF0000000484200BFFEE72DE9F04106463046BE
:100C0000FFF729FD04460D460022174B20462946D2
:100C1000FFF7ADFC04460D464FF06632134B2046FD
:100C20002946FFF7A4FC07460022114BFFF72DFCD5
:100C300004460D4600220E4B20462946FFF770FD64
:100C400001D800240B4D00210B4800F0BAFD2046CE
:100C50002946FFF721FD07463B460022114606487C
:100C600000F096FDBDE8F08100408F4066660A40C6
:100C70000000B04000FEAF405401002010B5024813
:100C800000F0DEFE10BD0000E802002010B50248B2
:100C900000F0D6FE10BD0000A402002030B590F890
:100CA00040500124AC40C56B6C60046863604468CC
:100CB000102C04D10468A2600468E16003E00468B9
:100CC000A1600468E26030BD704772B600BFFEE705
:100CD0000FB50021009101910291039100200EE0D7
:100CE00000F003015DF8211000F003020D4B33F812
:100CF0001220114400F003024DF82210401C282855
:100D0000EED300200AE05DF820104FF4A5725143A5
:100D1000C1F30F31044A22F81010401C0428F2D30A
:100D20000FBD0000340000200000002010B54FF47B
:100D30008041484801F098FA474908714FF4005142
:100D4000444801F091FA444948724FF480514148B7
:100D500001F08AFA40498873002077E000EB8001B7
:100D60003D4A515C21B101290ED002296CD11DE010
:100D700000EB8001384A1144097921B9012100EBC7
:100D80008002354B99545FE000EB8001324A1144F8
:100D9000097929B9022100EB80022F4B995404E014
:100DA000002100EB80022C4B99544DE000EB8001B8
:100DB000294A1144097949BB00EB80011144C978E3
:100DC000642909DA00EB80011144C978491C00EB61
:100DD0008002214B1A44D17000EB80011E4A11445D
:100DE000C97864292FDB00EB80011144C978782988
:100DF00005D0012100EB8002174B1A449170782135
:100E000000EB8002144B1A44D1701CE000EB80010F
:100E1000114A1144C978782906DB002100EB8002D1
:100E20000D4B1A44D17005E0012100EB80020A4B02
:100E30001A445170002100EB8002074B1A44D17014
:100E400000EB8002995400BF00BF401C032885DBE3
:100E500010BD0000000C0140F407002010B516483A
:100E6000008816490988884211DA134840881349D6
:100E7000498888420BDA104880881049898888425E
:100E800005DA0E48C0880E490988884209DC4021ED
:100E90000C4801F0F1F9012280210A4801F0F6F92D
:100EA00009E000224021074801F0F0F900228021EA
:100EB000044801F0EBF910BD0000002008000020FC
:100EC0001800002000100140F8B50446002600205C
:100ED000009000BF94F82400012801D10220F8BD41
:100EE000012084F8240000BF2046FFF745FD064698
:100EF0002046FFF7AFFD0646002E69D1A06A20F418
:100F0000885040F00200A062022001F02DFE34491A
:100F10000968B1FBF0F04000009002E00098401E2C
:100F2000009000980028F9D12068806840F00800FF
:100F30002168886001F0B0F9054616E001F0ACF9CF
:100F4000401B0A2811D92068806800F0080060B1B1
:100F5000A06A20F0020040F01000A06200BF002054
:100F600084F8240000BF0120B9E72068806800F001
:100F700008000028E2D12068806840F00400216861
:100F8000886001F089F9054616E001F085F9401BFB
:100F90000A2811D92068806800F0040060B1A06AB6
:100FA00020F0020040F01000A06200BF002084F892
:100FB000240000BF012092E72068806800F0040050
:100FC0000028E2D1A06A20F0020040F00100A062F7
:100FD00000BF002084F8240000BF30467FE70000F7
:100FE000300000207047000038B502460023002082
:100FF000009000BF92F82400012801D1022038BDE2
:10100000012082F8240000BF4868072812D2106827
:10101000406B0C79641E04EB84051F24AC40A04394
:101020000D796D1E05EB85050C68AC4020431468F6
:10103000606327E048680D2812D21068006B0C79B5
:10104000E41F04EB84051F24AC40A0430D79ED1F81
:1010500005EB85050C68AC4020431468206311E063
:101060001068C06A0C790D3C04EB84051F24AC4069
:10107000A0430D790D3D05EB85050C68AC40204380
:101080001468E06208680A2812D31068C0680C78F7
:101090000A3C04EB44050724AC40A0430D780A3D0C
:1010A00005EB45058C68AC4020431468E0600FE018
:1010B000106800690C7804EB44050724AC40A04399
:1010C0000D7805EB45058C68AC4020431468206121
:1010D0000868102802D00868112827D1174C10681A
:1010E000A0421ED11068806800F40000F0B91068BA
:1010F000806840F400001468A0600868102815D1CA
:101100000F4800680F4CB0FBF4F000EB800040008B
:10111000009002E00098401E009000980028F9D14D
:1011200004E0906A40F020009062012300BF00209C
:1011300082F8240000BF184661E700000024014047
:101140003000002040420F0010B50446082303A2DF
:101150002821002004F072F910BD00006F6F6B6B46
:10116000000000007047704770B5044620680568AD
:101170002068466806F0200020282DD105F00200E6
:10118000022829D1A06A00F0100018B9A06A40F422
:101190000070A0622068806800F46020B0F5602FC5
:1011A00013D1207B88B92068406820F02000216896
:1011B0004860A06A20F48070A062A06A00F48050A9
:1011C00018B9A06A40F00100A0622046FFF7BCFFFA
:1011D0006FF012002168086006F08000802839D185
:1011E00005F00400042835D1A06A00F0100018B9F9
:1011F000A06A40F40050A0622068806800F4E040DB
:10120000B0F5E04F0DD02068406800F48060D0B9A0
:101210002068806800F46020B0F5602F13D1207B37
:1012200088B92068406820F0800021684860A06A82
:1012300020F48050A062A06A00F4807018B9A06AFF
:1012400040F00100A0622046FFF7CCFE6FF00C00DA
:101250002168086006F0400040280DD105F001002B
:1012600050B1A06A40F48030A062204600F0B6F889
:101270006FF001002168086070BD00002DE9F041A9
:101280000446002700250026A84614B90120BDE821
:10129000F081A06810B1207D00B100BFA06A30B914
:1012A0000020E06284F82400204600F099F82046EF
:1012B000FFF762FB0746A06A00F01000002873D118
:1012C000002F7ED1A06A20F4885040F00200A06276
:1012D0003F4AD4E90001904208D1E069B0F5402FBF
:1012E00002D14FF4002002E0E06900E0E069014330
:1012F000207B41EA40000643A068B0F5807F02D021
:10130000A068012802D14FF4807000E0002005435E
:10131000207D012811D1207B38B9A069401E4FF4EF
:10132000006141EA4030054307E0A06A40F0200038
:10133000A062E06A40F00100E0622068406820F4AA
:101340006940284321684860206880682149084036
:10135000304321688860A068B0F5807F02D0A06823
:10136000012802D14FF4807000E00020B0F5807FAA
:1013700003D1208A401E4FEA00582068C06A20F43A
:10138000700040EA08002168C8622068806812493D
:101390000840B04209D10020E062A06A20F00200BB
:1013A00040F00100A06211E00BE0A06A20F0020012
:1013B00040F01000A062E06A40F00100E062012706
:1013C00004E0A06A40F01000A062012738465EE702
:1013D000003C0140FDF7E1FFFE0E1FFF70470000DB
:1013E00010B586B00446002002900390049005904A
:1013F00026492068884246D100BF2548806940F4CC
:101400000070234988610846806900F400700190EB
:1014100000BF00BF00BF0846806940F0040088613B
:101420000846806900F00400019000BF00BF0F2053
:1014300002900320039002A9164800F075FD16489B
:10144000164908600020486000211448816080210E
:10145000C160490001618900416120218161090267
:10146000C16100F0B9FC08B1FFF72FFC00BF0B48C9
:101470002062446200BF00220121122001F022FB01
:10148000122001F00FFB06B010BD00000024014047
:101490000010024000080140080002401001002036
:1014A0002DE9F04104460D461646002757492068AD
:1014B000884203D056492068884205D15348001D10
:1014C000006800F4702000E0002000287ED100BFFA
:1014D00094F82400012802D10220BDE8F081012007
:1014E00084F8240000BF2046FFF7B4FA0746002F17
:1014F0006DD1A06A40F60161884340F48070A0621B
:1015000043492068884209D14048001D006800F422
:10151000702008B9012002E0002000E0012078B12D
:10152000A06A20F48010A0622068406800F4806007
:1015300000B3A06A20F4005040F48050A06219E08B
:10154000A06A40F48010A06230492068884203D02D
:101550002F492068884205D12C48001D006800F4FE
:10156000806000E0002028B1A06A20F4005040F420
:101570008050A062A06A00F4805020B1E06A20F0A0
:101580000600E06201E00020E06200BF002084F875
:10159000240000BF1F48216A88621F48216AC86270
:1015A0001E48216A08636FF0020021680860206805
:1015B000806840F4807021688860226802F14C01E4
:1015C00033462A46206A00F04DFC01E01AE014E0A0
:1015D0002068806800F46020B0F5602F06D1206894
:1015E000806840F4A000216888600CE02068806872
:1015F00040F480102168886005E000BF002084F876
:10160000240000E00127384667E70000002401407D
:1016100000280140D5090008450A0008270A0008EB
:1016200070B50446002500BF94F82400012801D1BC
:10163000022070BD012084F8240000BF2046FFF77F
:101640009BF90546D5B92068806820F48070216830
:101650008860206A90F8210002280FD1206A00F0EB
:10166000EFF8054635B9A06A20F4885040F0010033
:10167000A06203E0A06A40F04000A06200BF00202A
:1016800084F8240000BF2846D3E7F0B503460026BF
:1016900003B109B90120F0BD00BF5879012801D17B
:1016A0000220F8E70120587100BF02201871186865
:1016B000046802F0100740F6FE70B8408443D1E998
:1016C000000740EA070502F0100005FA00F00443A5
:1016D000186804601868006802F0100CC02707FA48
:1016E0000CF7B8431F6838600120187100BF002054
:1016F000587100BF3046CEE710B504460CB9012042
:1017000010BD207920B900206071204600F008F853
:101710000220207100202061012020710020EFE7CD
:1017200010B586B004460020029003900490059006
:1017300014492068884222D100BF1348C06940F094
:1017400000501149C8610846C06900F0005001907E
:1017500000BF00BF00BF0846806940F004008861F8
:101760000846806900F00400019000BF00BF10200F
:1017700002900320039002A9044800F0D5FB06B0B4
:1017800010BD00000074004000100240000801403D
:1017900038B50446002000900CB9012038BD2068FF
:1017A000009029B902F10800009D2844009004E04F
:1017B00002F11400009D284400900098036000206E
:1017C000ECE710B502460AB9012010BD00BF507900
:1017D000012801D10220F8E70120507100BF02204A
:1017E00010711068006801F010040123A340184331
:1017F0001368186061B91068006800F03C003C286C
:1018000016D11068406840F00100136858600FE07E
:101810001068006800F4701301F010043C20A04030
:10182000834205D11068406840F002001368586098
:101830000120107100BF0020507100BF00BFC4E73D
:101840000146002291F82100022808D00420886374
:1018500000BF002081F8200000BF01207047086809
:10186000006820F00E000B6818600868006820F01F
:1018700001000B68186091F8403001209840CB6B54
:101880005860012081F8210000BF002081F820006D
:1018900000BF1046E2E7000070B50446002594F84A
:1018A0002100022803D00420A0630125C1E02068A4
:1018B000006820F00E00216808602068006820F0B1
:1018C0000100216808605C492068884252D95A4961
:1018D00078392068884201D1012047E056496439AF
:1018E0002068884201D1102040E0534950392068D7
:1018F000884201D1801539E04F493C39206888423F
:1019000001D1801432E04C4928392068884202D144
:101910004FF480302AE0484914392068884202D1C7
:101920004FF4801022E044492068884201D14004ED
:101930001CE042492068884201D1012016E03F495D
:1019400014312068884201D110200FE03B49283132
:101950002068884201D1801508E038493C31206870
:10196000884201D1801401E04FF480303349091FCF
:10197000086051E0304978392068884201D101205F
:1019800047E02D4964392068884201D1102040E0A9
:10199000294950392068884201D1801539E026490B
:1019A0003C392068884201D1801432E0224928392C
:1019B0002068884202D14FF480302AE01E49143951
:1019C0002068884202D14FF4801022E01A49206832
:1019D000884201D140041CE018492068884201D1A6
:1019E000012016E0154914312068884201D11020E9
:1019F0000FE0124928312068884201D1801508E0A3
:101A00000E493C312068884201D1801401E04FF436
:101A10008030094980394860012084F8210000BFE6
:101A2000002084F8200000BF606B10B12046616B7D
:101A30008847284670BD000080000240080402402C
:101A400070B50446E06B05682068066894F840109D
:101A5000042088402840002875D006F004000028A3
:101A6000FAD02068006800F0200028B920680068DB
:101A700020F0040021680860D5492068884254D9C4
:101A8000D34978392068884201D1042049E0D049FF
:101A900064392068884201D1402042E0CC49503965
:101AA0002068884201D100153BE0C9493C392068D3
:101AB000884202D14FF4804033E0C549283920687C
:101AC000884202D14FF480202BE0C14914392068AC
:101AD000884202D14FF4800023E0BD49206888424B
:101AE00001D1C0041DE0BB492068884201D1042017
:101AF00017E0B84914312068884201D1402010E035
:101B0000B44928312068884201D1001509E0B14963
:101B10003C312068884202D14FF4804001E04FF40C
:101B20008020AC49091F086054E0A9497839206831
:101B3000884201D104204AE0A549643920688842DE
:101B400002D1402043E04CE0A1495039206888424E
:101B500001D100153BE09E493C392068884202D102
:101B60004FF4804033E09A4928392068884202D1F6
:101B70004FF480202BE0964914392068884202D126
:101B80004FF4800023E092492068884201D1C004CC
:101B90001DE090492068884201D1042017E08D495A
:101BA00014312068884201D1402010E08949283151
:101BB0002068884201D1001509E086493C3120683F
:101BC000884202D14FF4804001E04FF480208049E8
:101BD00080394860E06A002802D02046E16A8847E0
:101BE000F4E094F84010022088402840002871D08A
:101BF00006F002000028FAD02068006800F02000FB
:101C000040B92068006820F00A00216808600120BF
:101C100084F821006E492068884254D96C4978398B
:101C20002068884201D1022049E06949643920686E
:101C3000884201D1202042E065495039206888421D
:101C400001D140153BE062493C392068884202D10D
:101C50004FF4005033E05E4928392068884202D1B1
:101C60004FF400302BE05A4914392068884202D1E1
:101C70004FF4001023E056492068884201D18004C7
:101C80001DE054492068884201D1022017E05149E3
:101C900014312068884201D1202010E04D492831BC
:101CA0002068884201D1401509E04A493C3120684A
:101CB000884202D14FF4005001E04FF40030454912
:101CC000091F086054E0424978392068884202D1EF
:101CD00002204AE057E03E4964392068884201D139
:101CE000202042E03A4950392068884201D140150D
:101CF0003BE037493C392068884202D14FF400501C
:101D000033E0334928392068884202D14FF400304B
:101D10002BE02F4914392068884202D14FF400107B
:101D200023E02B492068884201D180041DE0294925
:101D30002068884201D1022017E02649143120682A
:101D4000884201D1202010E02249283120688842B1
:101D500001D1401509E01F493C312068884202D179
:101D60004FF4005001E04FF40030194980394860C9
:101D700000BF002084F8200000BFA06A30B32046D6
:101D8000A16A884722E094F8401008208840284043
:101D9000E0B106F00800C8B12068006820F00E002D
:101DA0002168086094F8401001208840E16B486089
:101DB0000120A06384F8210000BF002084F82000E7
:101DC00000BF206B10B12046216B884770BD00001A
:101DD00080000240080402400146002209B90120A7
:101DE00070471E4B086898420BD21D4B0868C01AFA
:101DF0001423B0FBF3F08000086419480838C86366
:101E00000AE0164B0868C01A1423B0FBF3F08000F8
:101E1000086412480838C863022081F82100086865
:101E2000026843F6F0708243D1E901031843CB689E
:101E300018430B6918434B6918438B691843CB69E6
:101E4000184302430868026000208863012081F87B
:101E50002100002081F8200000BFC1E708040240F3
:101E6000080002402DE9F04104460D4616461F4683
:101E70004FF0000800BF94F82000012802D1022092
:101E8000BDE8F081012084F8200000BF94F8210013
:101E900001282CD1022084F821000020A0632068B2
:101EA000006820F00100216808603B463246294660
:101EB0002046FEF7F3FEE06A30B12068006840F08B
:101EC0000E00216808600BE02068006820F0040024
:101ED000216808602068006840F00A0021680860F6
:101EE0002068006840F001002168086006E000BF3B
:101EF000002084F8200000BF4FF002084046BFE7F2
:101F000070B5044600F0C8F906462546681C10B1B5
:101F100004480078054400BF00F0BEF9801BA842C9
:101F2000FAD370BD2C0000202DE9F84702460023AB
:101F30009C467BE14FF0010808FA03F4D1F80080D9
:101F400008EA0400A0427DD1DFF8F4A2D1F80480B1
:101F5000A8EB0A09D0453AD014DCB8F1030F50D0F1
:101F600009DCB8F1000F31D0B8F1010F1CD0B8F185
:101F7000020F49D120E0B8F1110F18D0B8F1120FBB
:101F800042D11EE0B9F5881F25D006DCB9F5803FA7
:101F900020D0B9F5801F37D11AE0B9F5001F18D04D
:101FA000B9F5041F30D117E0D1F80CC02DE0D1F8FD
:101FB0000C8008F1040C28E0D1F80C8008F1080C22
:101FC00023E0D1F80C8008F10C0C1EE000BF00BF2C
:101FD00000BF00BF00BF00BFD1F80880B8F1000FFC
:101FE00002D14FF0040C0BE0D1F80880B8F1010FDA
:101FF00003D14FF0080C146102E04FF0080C54615B
:1020000003E04FF0000C00E000BF00BFFF2801D844
:10201000904601E002F104084646FF2802D84FEA44
:10202000830803E0A3F108084FEA88084746D6F87A
:1020300000804FF00F0909FA07F928EA09080CFA9D
:1020400007F900E07AE048EA0908C6F80080D1F80C
:10205000048008F08058B8F1805F6FD100BFDFF8CE
:10206000E481D8F8188048F00108DFF8D891C9F861
:102070001880C846D8F8188008F00108CDF800800C
:1020800000BF00BF4FEAB9384FEA930958F829500A
:102090004FEA83784FEA18794FF00F0808FA09F8E9
:1020A00025EA0805DFF8A081424502D14FF000087B
:1020B00024E0DFF89881424502D14FF001081DE08D
:1020C000DFF88C81424502D14FF0020816E0DFF8BC
:1020D0008481424502D14FF003080FE0DFF8788198
:1020E000424502D14FF0040808E0DFF87081424514
:1020F00002D14FF0050801E04FF006084FEA83795E
:102100004FEA197908FA09F848EA0505DFF850811D
:102110004FEA930948F82950D1F8048008F4801850
:10212000B8F5801F0BD1DFF83C81D8F8008048EA71
:102130000008DFF83091C9F800800AE075E0DFF8A8
:102140002481D8F8008028EA0008DFF81891C9F83F
:102150000080D1F8048008F40018B8F5001F0ED1F3
:10216000DFF8008108F10408D8F8008048EA000888
:10217000DFF8F09009F10409C9F800800DE0DFF8FC
:10218000E48008F10408D8F8008028EA0008DFF8A5
:10219000D49009F10409C9F80080D1F8048008F44A
:1021A0000038B8F5003F0ED1DFF8B880A8F1040878
:1021B000D8F8008048EA0008DFF8A890A9F10409DF
:1021C000C9F800800DE0DFF89C80A8F10408D8F879
:1021D000008028EA0008DFF88C90A9F10409C9F80A
:1021E0000080D1F8048008F48038B8F5803F0ED123
:1021F000DFF87080A8F10808D8F8008048EA0008E5
:10220000DFF86090A9F10809C9F800800DE0DFF857
:102210005480A8F10808D8F8008028EA0008DFF800
:102220004490A9F10809C9F800805B1CD1F800802E
:1022300028FA03F8B8F1000F7FF47CAEBDE8F88708
:10224000000011100010024000080140000C014085
:10225000001001400014014000180140001C014022
:102260000800014008040140024693680B400BB18E
:10227000012000E00020704710B5C26821EA020387
:1022800002EA010443EA0443036110BD0AB101619B
:1022900001E00B04036170470148006870470000CB
:1022A0002400002070B504460CB9012070BD94F8DC
:1022B0003D0028B9002084F83C00204600F048FB8F
:1022C000242084F83D002068006820F00100216887
:1022D00008602068006840F40040216808602068B9
:1022E000006820F400402168086000F02DFE0546DB
:1022F0005C496068884206D85B48854201D201206B
:1023000007E0002005E05948854201D2012000E0A5
:102310000020012800D1C9E75548B5FBF0F6206838
:10232000406820F03F003043216848604D496068B4
:10233000884201D8701C07E04FF4967070434FF448
:102340007A71B0FBF1F0401C2168096A21F03F016D
:1023500008432168086243496068884214D8681EAF
:1023600061684900B0FBF1F0401CC0F30B00042889
:1023700001D204203DE0681E61684900B0FBF1F025
:10238000401CC0F30B0034E0A06838B9681E6168D7
:1023900001EB4101B0FBF1F0401C0AE0681E6168EE
:1023A00001EBC10202EB0111B0FBF1F0401C40F463
:1023B0008040C0F30B0008B901201AE0A06848B9BA
:1023C000681E616801EB4101B0FBF1F0401CC0F3F5
:1023D0000B000CE0681E616801EBC10202EB011109
:1023E000B0FBF1F0401CC0F30B0040F4804040F41F
:1023F00000402168C9694CF6FF7291430843216887
:10240000C861D4E9070108432168096821F0C001C7
:10241000084321680860D4E90310084321688968EB
:1024200048F2FF329143084321688860D4E90501EE
:1024300008432168C96821F0FF0108432168C8608A
:102440002068006840F001002168086000202064D6
:10245000202084F83D000020206384F83E0000BF67
:1024600024E70000A086010080841E0000093D00D2
:1024700040420F002DE9FC4704468946174698461E
:102480000A9E00200190FFF707FF054694F83D00E3
:1024900020286FD119230122CD492046009502F052
:1024A00020F910B10220BDE8FC8700BF94F83C0081
:1024B000012801D10220F6E7012084F83C0000BF8A
:1024C0002068006800F0010028B92068006840F02A
:1024D0000100216808602068006820F4006021681D
:1024E0000860222084F83D00102084F83E0000207F
:1024F00020646762A4F82A80608D2085B548E06278
:102500002B4632464946204601F0BCFF08B1012067
:10251000C9E7208D88B900BF00200090206840697D
:10252000009020688069009000BF00BF20680068AC
:1025300040F40070216808604BE0208D01281AD11A
:102540002068006820F480602168086072B600BFCF
:102550000020009020684069009020688069009009
:1025600000BF00BF2068006840F400702168086068
:1025700062B62EE029E1208D022819D1206800687A
:1025800040F400602168086072B600BF002000902F
:1025900020684069009020688069009000BF00BFFB
:1025A0002068006820F480602168086062B610E04E
:1025B0002068006840F480602168086000BF002047
:1025C000009020684069009020688069009000BFFA
:1025D00000BFEBE0208D03287ED8208D012815D187
:1025E0002A463146204602F058F908B101205AE740
:1025F00020680069616A0870606A401C6062208D12
:10260000401E2085608D401E6085CFE0208D022811
:102610002CD13346002270492046009502F061F823
:1026200008B101203FE772B62068006840F40070EE
:102630002168086020680069616A0870606A401C4F
:102640006062208D401E2085608D401E608562B6D0
:1026500020680069616A0870606A401C6062208DB1
:10266000401E2085608D401E60859FE0334600221D
:1026700059492046009502F034F808B1012012E7CC
:102680002068006820F480602168086072B62068C5
:102690000069616A0870606A401C6062208D401E9B
:1026A0002085608D401E60854C4800681921B0FB74
:1026B000F1F04FF47A71B0FBF1F0C0EBC00000EB29
:1026C0008000019000BF0198401E01900198A8B9B8
:1026D00000202063202000E038E084F83D00002046
:1026E00084F83E00206C40F02000206462B600BFF9
:1026F000002084F83C0000BF0120D4E62068406937
:10270000C0F380000028DED02068006840F400702C
:102710002168086020680069616A0870606A401C6E
:102720006062208D401E2085608D401E608562B6EF
:1027300020680069616A0870606A401C6062208DD0
:10274000401E2085608D401E60852FE02A46314660
:10275000204602F0A2F808B10120A4E62068006932
:10276000616A0870606A401C6062208D401E20858E
:10277000608D401E608520684069C0F38000A8B16C
:10278000208D032805D12068006820F4806021682E
:10279000086020680069616A0870606A401C6062B5
:1027A000208D401E2085608D401E6085208D002874
:1027B0007FF410AF202084F83D00002084F83E0014
:1027C00000BF84F83C0000BF6DE602206BE600000D
:1027D000020010000000FFFF040001003000002094
:1027E0002DE9F8430446894616461F46DDF8208049
:1027F000FFF752FD054694F83D0020287ED11923AD
:10280000012251492046009501F06BFF10B10220D2
:10281000BDE8F88300BF94F83C00012801D10220F4
:10282000F6E7012084F83C0000BF2068006800F053
:10283000010028B92068006840F0010021680860A4
:102840002068006820F4006021680860212084F876
:102850003D00102084F83E000020206466626785F9
:10286000608D20853948E0622B4642464946204625
:1028700001F0A4FE08B10120CAE700BF00200090CB
:1028800020684069009020688069009000BF00BF08
:1028900044E02A464146204602F044F850B1206CFC
:1028A000042805D12068006840F4007021680860A1
:1028B0000120ADE7606A007821680861606A401C09
:1028C0006062608D401E6085208D401E20852068DE
:1028D0004069C0F3800070B1208D60B1606A0078FB
:1028E00021680861606A401C6062608D401E6085DE
:1028F000208D401E20852A46414600E022E02046E9
:1029000001F0BCFE50B1206C042805D1206800689D
:1029100040F4007021680860012079E7208D0028CC
:10292000B7D12068006840F400702168086020205A
:1029300084F83D00002084F83E0000BF84F83C008D
:1029400000BF65E7022063E7020010000000FFFF00
:1029500010B586B0044600200290039004900590C4
:1029600015492068884225D100BF1448806940F08D
:102970000800124988610846806900F0080001904B
:1029800000BF00BFC02002901220039003200590DA
:1029900002A90B48FFF7C8FA00BF0848C06940F415
:1029A00000100649C8610846C06900F40010019093
:1029B00000BF00BF06B010BD005400400010024030
:1029C000000C0140034800680349097808440149A4
:1029D00008607047240000202C00002010B5084833
:1029E000006840F0100006490860032000F0A8F8D5
:1029F000002000F007F800F02BF8002010BD0000C8
:102A00000020024070B504460E4800784FF47A71F9
:102A1000B1FBF0F00C490968B1FBF0F5284601F074
:102A20008FF808B1012070BD102C07D2002221467A
:102A3000501E00F047F80548046001E00120F2E76D
:102A40000020F0E72C0000203000002028000020AB
:102A500008B500BF1148806940F001000F49886146
:102A60000846806900F00100009000BF00BF00BF71
:102A70000846C06940F08050C8610846C06900F04F
:102A80008050009000BF00BF00BF0549486820F09B
:102A9000E06040F00070486000BF08BD00100240D8
:102AA0000000014001460846002809DB00F01F0332
:102AB00001229A4043099B0003F1E023C3F800215F
:102AC00000BF70472DE9F05F80460D46164600278F
:102AD00003F030FD074639462A46334601F0070029
:102AE000C0F1070ABAF1040F02D94FF0040A01E05D
:102AF000C0F1070AD14600F1040ABAF1070F02D269
:102B00004FF0000A01E0A0F1030AD4464FF0010A99
:102B10000AFA09FAAAF1010A0AEA020A0AFA0CFAFE
:102B20004FF0010B0BFA0CFBABF1010B0BEA030BA3
:102B30004AEA0B042146404603F004FDBDE8F09F3D
:102B400000BF00F00702064B19684FF6FF0319405B
:102B5000044B0B4343EA0221014B196000BF70474D
:102B60000CED00E00000FA052DE9F04706464FF0B5
:102B70000008002500270024A146042E37D004DCDD
:102B8000012E3CD0022E6CD160E0082E33D0102EE6
:102B900067D136484468006800F0807008B3344854
:102BA000C4F38341475C04F4803078B12F48406817
:102BB000C0F340402F4911F8008004F4803040B148
:102BC0002D48B0FBF8F000FB07F502E02B4807FBAF
:102BD00000F52648406800F48000B0F5800F01D170
:102BE000A94603E068000321B0FBF1F93AE000F0E8
:102BF000CBF9814636E000F0C7F9814632E01B4848
:102C0000046A04F44070B0F5807F05D104F002003E
:102C100010B14FF4004918E004F44070B0F5007FA3
:102C200007D11248406A00F0020010B149F640494D
:102C30000BE004F44070B0F5407F06D10B4800680B
:102C400000F4003008B14FF224490BE000F08CF999
:102C500006494968C1F38131491C4900B0FBF1F9CB
:102C600000E000BF00BF4846BDE8F087001002400A
:102C700094700008A470000800127A0000093D005A
:102C8000F8B5044600260025207800F00100002851
:102C90006BD000274348C06900F0805070B900BF76
:102CA0004048C06940F080503E49C8610846C0694C
:102CB00000F08050009000BF00BF01273A48006834
:102CC00000F48070B0B93848006840F4807036492C
:102CD0000860FFF7E1FA064606E0FFF7DDFA801B21
:102CE000642801D90320F8BD2F48006800F48070E3
:102CF0000028F2D02B48006A00F440752DB3A0885C
:102D000000F44070A84220D02648006A20F44075A4
:102D1000012026490860002008602248056205F06D
:102D2000010090B1FFF7B8FA064608E0FFF7B4FAE1
:102D3000801B41F28831884201D90320D3E719482A
:102D4000006A00F002000028F0D01648006A20F463
:102D500040706168084313490862012F04D1084696
:102D6000C06920F08050C86100BF207800F00200E8
:102D7000022807D10B48406820F44040A16808436E
:102D800008494860207800F01000102807D1054855
:102D9000406820F4800061690843024948600020CF
:102DA000A1E70000001002400070004040044242D1
:102DB00070B504460D460CB9012070BD5A48006834
:102DC00000F00700A8420ED25748006820F0070024
:102DD0002843554908600846006800F00700A842EB
:102DE00001D00120E9E7207800F0020002281DD17F
:102DF000207800F00400042805D14C48406840F4D5
:102E0000E0604A494860207800F00800082805D1B1
:102E10004648406840F46050444948604348406830
:102E200020F0F000A168084340494860207800F095
:102E3000010078B36068012806D13C48006800F4BE
:102E4000003090B90120B8E76068022806D1374801
:102E5000006800F0007040B90120AEE73348006818
:102E600000F0020008B90120A7E73048406820F0D0
:102E70000300616808432D494860FFF70DFA0646D4
:102E800009E0FFF709FA801B41F28831884202D934
:102E9000032092E707E02548406800F00C006168D5
:102EA000B0EB810FEDD12048006800F00700A84288
:102EB0000ED91D48006820F0070028431A49086011
:102EC0000846006800F00700A84201D0012074E71E
:102ED000207800F00400042807D11448406820F44A
:102EE000E060E168084311494860207800F008007C
:102EF000082808D10D48406820F46050216940EA54
:102F0000C1000A49486000F03FF808494968C1F328
:102F10000311074A515CC84006490860064800682A
:102F2000FFF770FD002048E700200240001002403B
:102F3000A67000083000002028000020014800682A
:102F4000704700003000002000B5FFF7F7FF04498C
:102F50004968C1F30221034A515CC84000BD00002A
:102F600000100240B670000800B5FFF7E7FF044903
:102F70004968C1F3C221034A515CC84000BD00004A
:102F800000100240B670000870B500210022002435
:102F900000230020134D696801F00C05F5B1042DE4
:102FA00002D0082D19D101E00F4819E00F4DC1F3EF
:102FB0008346AB5D01F4803555B10A4D6D68C5F3AC
:102FC00040450B4E725D084D5D43B5FBF2F402E0E7
:102FD000084D03FB05F4204602E000BF024800BF95
:102FE00000BF70BD0010024000127A00827000081D
:102FF0009270000800093D00F8B504460CB90120A4
:10300000F8BD207800F00100002878D0F84840682A
:1030100000F00C0004280CD0F548406800F00C00CB
:10302000082811D1F248406800F48030B0F5803FA4
:103030000AD1EF48006800F4003000285FD06068D3
:1030400000285CD10120DBE700BF6068B0F5803F5D
:1030500006D1E748006840F48030E549086028E080
:10306000606858B9E248006820F48030E0490860A0
:103070000846006820F4802008601AE06068B0F517
:10308000A02F0BD1DA48006840F48020D8490860AE
:103090000846006840F4803008600AE0D4480068C0
:1030A00020F48030D24908600846006820F480206F
:1030B000086000BF606888B1FFF7EEF8054606E0DB
:1030C000FFF7EAF8401B642801D9032098E7C848B5
:1030D000006800F400300028F2D010E0FFF7DCF8C0
:1030E000054606E0FFF7D8F8401B642801D9032005
:1030F00086E7BF48006800F400300028F2D120784D
:1031000000F00200022857D1B948406800F00C00D6
:1031100050B1B748406800F00C00082818D1B448F6
:10312000406800F4803098B9B148006800F00200AF
:1031300020B12069012801D0012061E7AC48006876
:1031400020F0F800616940EAC100A949086033E055
:103150002069E8B10120A7490860FFF79DF80546FE
:1031600006E0FFF799F8401B022801D9032047E742
:103170009F48006800F002000028F2D09C480068D8
:1031800020F0F800616940EAC1009949086013E045
:10319000002098490860FFF77FF8054606E0FFF732
:1031A0007BF8401B022801D9032029E790480068DA
:1031B00000F002000028F2D1207800F00800082872
:1031C0002DD1A069B8B101208B490860FFF764F8E0
:1031D000054606E0FFF760F8401B022801D90320EE
:1031E0000EE78348406A00F002000028F2D0012078
:1031F00002F090F913E000207F490860FFF74CF8D7
:10320000054606E0FFF748F8401B022801D90320D5
:10321000F6E67748406A00F002000028F2D12078F4
:1032200000F00400042873D100277148C06900F041
:10323000805070B900BF6E48C06940F080506C4942
:10324000C8610846C06900F08050009000BF00BF10
:1032500001276A48006800F48070B0B967480068C8
:1032600040F4807065490860FFF716F8054606E0EF
:10327000FFF712F8401B642801D90320C0E65F481D
:10328000006800F480700028F2D000BFE0680128D8
:1032900006D15748006A40F001005549086227E00E
:1032A000E06858B95248006A20F0010050490862AD
:1032B0000846006A20F00400086219E0E06805286A
:1032C0000BD14B48006A40F00400494908620846A7
:1032D000006A40F0010008620AE04548006A20F0F8
:1032E0000100434908620846006A20F004000862B1
:1032F00000BFE068A0B1FEF7CFFF054609E0FEF78A
:10330000CBFF401B41F28831884202D9032077E687
:1033100022E03748006A00F002000028EFD012E0F7
:10332000FEF7BAFF054608E0FEF7B6FF401B41F284
:103330008831884201D9032062E62D48006A00F0F6
:1033400002000028F0D1012F05D12948C06920F0E2
:1033500080502749C86100BFE069C8B3244840686D
:1033600000F00C00082860D0E069022848D1002055
:1033700020490866FEF790FF054606E0FEF78CFF41
:10338000401B022801D903203AE61948006800F0E2
:1033900000700028F2D1206AB0F5803F07D11448B0
:1033A000406820F40030A168084311494860D4E91E
:1033B000080108430E49496821F4741108430C4977
:1033C000486001200B490866FEF766FF054607E0E6
:1033D0003DE0FEF761FF401B022801D903200FE604
:1033E0000348006800F000700028F2D02FE00000D1
:1033F000001002400000424280044242007000403F
:10340000002014490866FEF747FF054606E0FEF770
:1034100043FF401B022801D90320F1E50E48006854
:1034200000F000700028F2D111E0E069012800D11D
:10343000E6E50948466806F48031206A814204D1F5
:1034400006F47011606A814201D00120D8E50020A5
:10345000D6E50000000042420010024010B50446CC
:103460000CB9012010BD606A38B96068B0F5827F80
:1034700000D105E00021E16102E0002121616161EC
:103480000021A16294F8510028B9002084F850006E
:10349000204600F043F8022084F8510020680068BC
:1034A00020F0400021680860A08800F48270218923
:1034B00001F404410843A18901F400610843217C1F
:1034C00001F002010843217D01F001010843218B35
:1034D00001F400710843217F01F0380108432021E5
:1034E000095D01F080010843218D01F4005108437A
:1034F000216808600421A06901EA10402168486041
:103500002068C06920F400602168C86100206065FF
:10351000012084F851000020A4E7000010B586B017
:103520000446002002900390049005901E492068F4
:10353000884236D100BF1D48806940F480501B4945
:1035400088610846806900F48050019000BF00BF88
:1035500000BF0846806940F008008861084680691D
:1035600000F00800019000BF00BF28200290022058
:1035700003900320059002A90D48FEF7D5FC10200A
:10358000029000200390049002A90948FEF7CCFCA9
:1035900000BF0849486840F0E06040F00100486022
:1035A00000BF06B010BD0000003001400010024016
:1035B000000C0140000001402DE9F8430446884614
:1035C00016461D4694F85100012802D00220BDE89D
:1035D000F8836068B0F5827F0CD1A06850B90420F0
:1035E00084F851003346424641462046009500F09B
:1035F00083F9ECE7FEF750FE0746B8F1000F00D064
:103600000EB90120E3E700BF94F85000012801D172
:103610000220DCE7012084F8500000BF042084F879
:10362000510000206065C4F83880A687E6872063D3
:10363000A086E08620646064A068B0F5004F0BD1DE
:103640002068006820F04000216808602068006859
:1036500020F48040216808602068006800F0400085
:10366000402805D02068006840F0400021680860CC
:10367000E06830BB21E02068806800F0010050B1B4
:103680002068007BA16B0870A06B401CA063E08FDA
:10369000401EE08711E0FEF7FFFDC01BA84201D3EA
:1036A000681C00B94DB9012084F8510000BF00200A
:1036B00084F8500000BF032089E7E08F0028DAD1AA
:1036C00025E021E02068806800F0010050B120680A
:1036D000C068A16B0880A06B801CA063E08F401EB7
:1036E000E08711E0FEF7D8FDC01BA84201D3681C9B
:1036F00000B94DB9012084F8510000BF002084F8C2
:10370000500000BF032062E7E08F0028DAD13A467C
:103710002946204601F024FF08B1202060650120E1
:1037200084F8510000BF002084F8500000BF606D95
:1037300008B101204BE7002049E72DE9F843044692
:103740000F4616461D46FEF7A7FD8046B14694F883
:103750005100012802D00220BDE8F88307B10EB95C
:103760000120F9E700BF94F85000012801D10220A0
:10377000F2E7012084F8500000BF032084F85100D4
:10378000002060652763A686E686A063A087E087A1
:1037900060642064A068B0F5004F0BD12068006819
:1037A00020F04000216808602068006840F48040F4
:1037B000216808602068006800F04000402805D0BB
:1037C0002068006840F0400021680860E068B0F5BB
:1037D000006F37D1606810B1B9F1010F09D1206BCA
:1037E00000882168C860206B801C2063E08E401E2A
:1037F000E08623E02068806800F0020002280AD1F9
:10380000206B00882168C860206B801C2063E08EDC
:10381000401EE08612E0FEF73FFDA0EB0800A84244
:1038200001D3681C00B94DB9012084F8510000BFD4
:10383000002084F8500000BF03208DE7E08E0028B0
:10384000D8D136E0606810B1B9F1010F09D1206B11
:10385000007821680873206B401C2063E08E401EB6
:10386000E08623E02068806800F0020002280AD188
:10387000206B007821680873206B401C2063E08E69
:10388000401EE08612E0FEF707FDA0EB0800A8420C
:1038900001D3681C00B94DB9012084F8510000BF64
:1038A000002084F8500000BF032055E7E08E002878
:1038B000D8D142462946204601F08EFE08B120208C
:1038C0006065A06850B900BF002000902068C06803
:1038D000009020688068009000BF00BF012084F83D
:1038E000510000BF002084F8500000BF606D08B197
:1038F000012031E700202FE72DE9FE4F04460F4657
:1039000090461D460C9E01200190FEF7C5FC8146A5
:1039100094F851B060680290AA46BBF1010F0BD039
:103920000298B0F5827F04D1A06810B9BBF1040FF2
:1039300002D00220BDE8FE8F1FB1B8F1000F00D009
:103940000DB90120F6E700BF94F85000012801D11D
:103950000220EFE7012084F8500000BF94F85100E6
:10396000042802D0052084F8510000206065C4F8C6
:103970003880E587A5872763E586A586206460648F
:103980002068006800F04000402805D020680068EA
:1039900040F0400021680860E068B0F5006F52D147
:1039A000606810B1BAF1010F09D1206B008821685D
:1039B000C860206B801C2063E08E401EE0863BE0E8
:1039C0002068806800F00200022810D1E08E70B1FB
:1039D000019801280BD1206B00882168C860206BFA
:1039E000801C2063E08E401EE0860020019020684D
:1039F000806800F0010068B1E08F58B12068C068AD
:103A0000A16B0880A06B801CA063E08F401EE08744
:103A100001200190FEF740FCA0EB0900B0420BD35F
:103A2000701C48B1012084F8510000BF002084F8C8
:103A3000500000BF03207DE7E08E0028C0D1E08F5A
:103A40000028BDD152E0606810B1BAF1010F09D170
:103A5000206B007821680873206B401C2063E08E87
:103A6000401EE0863CE02068806800F002000228EA
:103A700010D1E08E70B1019801280BD1206B007835
:103A800021680873206B401C2063E08E401EE08696
:103A9000002001902068806800F0010068B1E08F8C
:103AA00058B12068C068A16B0870A06B401CA0636F
:103AB000E08F401EE08701200190FEF7EDFBA0EBB8
:103AC0000900B04201D3701C00B94EB9012084F83E
:103AD000510000BF002084F8500000BF032029E7F8
:103AE000E08E0028BFD1E08F0028BCD14A46314685
:103AF000204601F071FD40B12020606500BF00202C
:103B000084F8500000BF012014E7A06850B900BF3E
:103B1000002000902068C0680090206880680090B5
:103B200000BF00BF012084F8510000BF002084F8CE
:103B3000500000BF606D08B10120FBE60020F9E6EF
:103B400070B504462546681EB0F1807F01D3012080
:103B50000FE0681E4FF0E02148610F214FF0FF3069
:103B600002F0F0FC00204FF0E0218861072008619E
:103B7000002070BD7047704730B502460B4600BF4D
:103B800092F83C00012801D1022030BD012082F8CA
:103B90003C0000BF022082F83D00106844681068B5
:103BA000816824F070041868044310684460144D60
:103BB0001068A84213D0134D1068A8420FD01068A7
:103BC000B0F1804F0BD0104D1068A84207D00F4DB8
:103BD0001068A84203D00E4D1068A84205D121F00C
:103BE00080015868014310688160012082F83D001F
:103BF00000BF002082F83C0000BF00BFC5E7000006
:103C0000002C014000340140000400400008004046
:103C1000000C004010B504460CB9012010BD94F80A
:103C20003D0028B9002084F83C00204600F026F82A
:103C3000022084F83D00211D206801F02FFE0120A4
:103C400084F8460000BF84F83E0001213F20015562
:103C5000402001554120015500BF00BF012084F8DC
:103C6000420043200155442001554520015500BF25
:103C7000012084F83D000020D0E7000038B504465C
:103C80000D492068884215D100BF0C48C06940F03A
:103C900010000A49C8610846C06900F01000009091
:103CA00000BF00BF002201213620FEF70BFF3620A7
:103CB000FEF7F8FE38BD0000001000400010024082
:103CC000014691F83D00012801D0012070470220F3
:103CD00081F83D000868C06840F001000B68D860BA
:103CE000164B0868984213D0154B086898420FD0BD
:103CF0000868B0F1804F0BD0124B0868984207D08B
:103D0000114B0868984203D0104B086898420CD1B8
:103D10000868806800F00702062A0CD0086800686E
:103D200040F001000B68186005E00868006840F08A
:103D300001000B6818600020C8E70000002C01405B
:103D4000003401400004004000080040000C004026
:103D5000704770B504462068C5682068066906F09B
:103D60000200022819D105F00200022815D1401FD7
:103D700021680861012020772068806900F0030035
:103D800018B12046FFF7E4FF05E0204600F097F861
:103D9000204600F095F80020207706F00400042863
:103DA00019D105F00400042815D1C0432168086129
:103DB000022020772068806900F4407018B1204606
:103DC000FFF7C6FF05E0204600F079F8204600F036
:103DD00077F80020207706F00800082819D105F0B0
:103DE0000800082815D1C043216808610420207705
:103DF0002068C06900F0030018B12046FFF7A8FF53
:103E000005E0204600F05BF8204600F059F800205D
:103E1000207706F01000102819D105F010001028A6
:103E200015D1C04321680861082020772068C06947
:103E300000F4407018B12046FFF78AFF05E02046E5
:103E400000F03DF8204600F03BF80020207706F017
:103E5000010048B105F0010030B16FF001002168A8
:103E60000861204600F02EF806F08000802809D175
:103E700005F08000802805D1C043216808612046F4
:103E8000FFF778FE06F04000402809D105F0400019
:103E9000402805D1C04321680861204600F08CF815
:103EA00006F02000202809D105F02000202805D1A7
:103EB000C043216808612046FFF75DFE70BD704772
:103EC00070470000F8B50446304884425CD1304861
:103ED0000078401C2E490870FCF728FF2C48007819
:103EE0001E2812DB2B492C48FCF720FEFCF7F0FEC5
:103EF0002A4800F045FEFCF7B1FF29480078401C35
:103F000027490870002022490870254800781E289B
:103F10003ADB2448FDF784FB1F48006802F035FBBC
:103F200007461C48006802F030FB06461E48008821
:103F30003B4632460090194801881C4800F0E8FDD5
:103F400019490888C11700EB11710911A0EB011183
:103F500039B915480588E91705EB1171081102F008
:103F600009FA1A2210480188114802F031FA0E4865
:103F70000088401C0C490880002009490870502224
:103F80000C490848FDF78CFAF8BD00001402002027
:103F90002000002010000020140000201800002045
:103FA00021000020E00000201C0000200000002074
:103FB000C2000020340000207047704770470000A6
:103FC0002DE9F84F0446206805682068C668206817
:103FD00047694FF00009CA4605F00F09B9F1000F13
:103FE0000AD105F0200038B106F0200020B12046AB
:103FF00001F0FAFCBDE8F88FB9F1000F7BD007F0B3
:10400000010018B906F49070002874D005F0010082
:1040100030B106F4807018B1606C40F0010060644B
:1040200005F0040030B107F0010018B1606C40F0F9
:104030000200606405F0020030B107F0010018B121
:10404000606C40F00400606405F0080048B106F0C0
:10405000200010B907F0010018B1606C40F00800B2
:104060006064606C002845D005F0200028B106F09F
:10407000200010B1204601F0B7FC20684069C0F371
:10408000801A606C00F0080010B9BAF1000F2CD053
:10409000204601F063FC2068406900F0400000B356
:1040A00000BF00BF2168143151E8001F21F040001B
:1040B0002168143141E80002002AF3D100BFE06B0F
:1040C00050B17748E16B4863E06BFDF7E5FB88B1E1
:1040D000E06B416B88470DE02046FFF76FFF09E07A
:1040E00009E02046FFF76AFF04E02046FFF766FF7D
:1040F000002060647EE7206B012877D105F0100076
:10410000002873D006F010000028FAD000BF00206D
:10411000009020680068009020684068009000BF10
:1041200000BF2068406900F0400000285FD0E06BCD
:10413000006840681FFA80F8B8F1000F55D0A08DD4
:10414000404552DDA4F82E80E06B8069202843D0E2
:1041500000BF00BF21680C3151E8001F21F48070BE
:1041600021680C3141E80002002AF3D100BF00BFF2
:1041700000BF2168143151E8001F21F001002168BF
:10418000143141E80002002AF3D100BF00BF00BF94
:104190002168143151E8001F21F0400021681431DA
:1041A00041E80002002AF3D100BF202084F8420039
:1041B0000020206300BF00BF21680C3151E8001FC0
:1041C00021F0100021680C3141E80002002AF3D1EF
:1041D00000BFE06BFDF734FB02206063A08DE28D31
:1041E000801A81B22046FFF7E8FE03E742E0A08D87
:1041F000E18D401A1FFA80F8E08DD0B3B8F1000FBE
:1042000037D000BF00BF21680C3151E8001F21F4F6
:10421000907021680C3141E80002002AF3D100BF00
:1042200000BF00BF2168143151E8001F21F00100D8
:104230002168143141E80002002AF3D100BF202098
:1042400084F842000020206300BF00BF21680C31C9
:1042500051E8001F21F0100021680C3141E80002F4
:10426000002AF3D100BF0220606341462046FFF7D9
:10427000A4FEBFE605F0800030B106F0800018B162
:10428000204601F0ADFCB5E605F0400030B106F087
:10429000400018B1204601F097FBABE600BFA9E64D
:1042A0004959000810B504460CB9012010BDA06999
:1042B00000B100E000BF94F8410028B9002084F864
:1042C0004000204600F02AF8242084F841002068AD
:1042D000C06820F400502168C860204601F002FC4C
:1042E0002068006920F490402168086120684069D6
:1042F00020F02A00216848612068C06840F400501E
:104300002168C86000206064202084F8410084F89F
:1043100042000020606300BFC8E7000010B586B00F
:1043200004460020029003900490059037492068CD
:10433000884269D100BF3648806940F480403449E2
:1043400088610846806900F48040019000BF00BF8A
:1043500000BF0846806940F0040088610846806913
:1043600000F00400019000BF00BF48150290022039
:1043700003900320059002A92648FDF7D5FD4FF4D0
:104380008060029000200390049002A92148FDF76C
:10439000CBFD2148214908600020486000211F48CA
:1043A00081608021C1600021016141618161C16141
:1043B000FDF712FD08B1FCF788FC00BF1748E06369
:1043C000446200BF14481438154908601020486042
:1043D0000021134881608021C16000210161416199
:1043E0008161C161FDF7F8FC08B1FCF76EFC00BF0C
:1043F0000B48A063446200BF002211462520FEF74F
:1044000061FB2520FEF74EFB06B010BD00380140D1
:10441000001002400008014058000240A4020020A1
:10442000E802002070470000034A0168914202D16F
:104430000121024A11707047003801401E0000201F
:1044400000BFFEE7014608684069C0F38020B0B1B4
:104450006FF480600A68506100200863202081F8B2
:104460003D00002081F83E00086C40F00400086424
:1044700000BF002081F83C0000BF012070470020F1
:10448000FCE700002DE9F84304460D4690461E4621
:10449000E76A2068006840F4806021680860082F9F
:1044A00004D0012F02D017F5803F06D120680068A4
:1044B00040F480702168086008E0206B112805D165
:1044C0002068006840F4807021680860434600223C
:1044D0004FF001112046009600F003F960B120680A
:1044E000006800F48070B0F5807F02D14FF4007056
:1044F00020640320BDE8F8832069B0F5804F05D122
:10450000E8B240F001002168086149E005F440701C
:10451000F02141EAE010216808613346424626490D
:10452000204600F03DF908B10120E3E7E8B2216838
:104530000861334642462049891F204600F030F981
:1045400008B10120D6E700BF002000902068406934
:10455000009020688069009000BF00BF206800685C
:1045600040F4807021680860434600224FF001113A
:104570002046009600F0B5F858B12068006800F4B5
:104580008070B0F5807F02D14FF40070206403206A
:10459000B0E705F44070F12141EAE01021680861BC
:1045A000334642460449891F204600F0F9F808B115
:1045B00001209FE700209DE7080001002DE9F84356
:1045C00004460D4617469846E66A082E04D0012E8A
:1045D00002D016F5803F06D12068006840F4807054
:1045E0002168086008E0206B122805D12068006867
:1045F00040F48070216808603B4600224FF00111B2
:104600002046CDF8008000F06CF860B120680068AA
:1046100000F48070B0F5807F02D14FF40070206408
:104620000320BDE8F8832069B0F5804F04D105F080
:10463000FE002168086112E005F44070F02141EAB3
:10464000E0102168086143463A460B49204600F0D5
:10465000A7F808B10120E4E7E8B221680861434601
:104660003A460549891F204600F09AF808B1012012
:10467000D7E70020D5E700000800010070B5044628
:104680000D46164625E02046FFF7DCFE08B1012066
:1046900070BD681CE8B1FDF7FFFD801BA84200D883
:1046A000BDB920684069C0F3800090B90020206344
:1046B000202084F83D00002084F83E00206C40F06B
:1046C0002000206400BF002084F83C0000BF0120CF
:1046D000DEE720684069C0F380000028D3D00020C6
:1046E000D6E72DE9F04104460D4617461E46DDF893
:1046F000188038E0701CA8B3FDF7CEFDA0EB0800D1
:10470000B04200D876BBC5F3074001280AD1206823
:104710004069A9B20840A9B2884201D101200BE04A
:10472000002009E020688069A9B20840A9B2884247
:1047300001D1012000E00020B84214D10020206304
:10474000202084F83D00002084F83E00206C40F0DA
:104750002000206400BF002084F83C0000BF01203E
:10476000BDE8F081FFE7C5F3074001280AD12068C2
:104770004069A9B20840A9B2884201D101200BE0EA
:10478000002009E020688069A9B20840A9B28842E7
:1047900001D1012000E00020B842ABD00020DFE7CB
:1047A0002DE9F04104460D4616461F4658E02068A4
:1047B0004069C0F38020E8B12068006840F40070D0
:1047C000216808606FF480602168486100202063E0
:1047D000202084F83D00002084F83E00206C40F04A
:1047E0000400206400BF002084F83C0000BF0120CA
:1047F000BDE8F081701C90B3FDF74EFDC01BB042C8
:1048000000D866BBC5F3074001280AD1206840697B
:10481000A9B20840A9B2884201D101200BE00020D2
:1048200009E020688069A9B20840A9B2884201D194
:10483000012000E0002090B900202063202084F8AF
:104840003D00002084F83E00206C40F020002064F1
:1048500000BF002084F83C0000BF0120C8E7FFE74C
:10486000C5F3074001280AD120684069A9B2084071
:10487000A9B2884201D101200BE0002009E02068A4
:104880008069A9B20840A9B2884201D1012000E0A4
:10489000002000288BD00020AAE770B504460D4602
:1048A000164637E020684069C0F30010A0B16FF0F1
:1048B00010002168486100202063202084F83D001A
:1048C000002084F83E00206C206400BF002084F8A3
:1048D0003C0000BF012070BDFDF7DEFC801BA8423C
:1048E00000D8BDB920684069C0F3801090B900209D
:1048F0002063202084F83D00002084F83E00206CD6
:1049000040F02000206400BF002084F83C0000BF7D
:104910000120E0E720684069C0F380100028C1D082
:104920000020D8E770B504460D46164625E020461F
:10493000FFF788FD08B1012070BD681CE8B1FDF7E4
:10494000ABFC801BA84200D8BDB920684069C0F309
:10495000C01090B900202063202084F83D00002082
:1049600084F83E00206C40F02000206400BF00204E
:1049700084F83C0000BF0120DEE720684069C0F3F6
:10498000C0100028D3D00020D6E74FF4FA7000BF43
:10499000011EA0F1010290B2FAD1704710B54FF498
:1049A00080610248FDF760FC10BD0000001001406E
:1049B00070B508250024012000F07AF800250EE0EB
:1049C0006006040E012000F065F8FFF7E7FF08B16C
:1049D00044F00104002000F05DF8681CC5B2082D09
:1049E000EEDB204670BD10B50446012C02D100F06C
:1049F0005FF802E0002000F05BF8012000F04AF8C8
:104A0000002000F047F810BD70B5044608250020CE
:104A100000F040F8002513E004F0800018B10120F8
:104A200000F046F802E0002000F042F8012000F01B
:104A300031F8002000F02EF86006040E681CC5B2A4
:104A4000082DE9DB70BD10B5012000F031F8012020
:104A500000F020F8FFF7A2FF08B9002010BD0020E9
:104A600000F026F8FFF79AFF08B10020F6E70020D3
:104A700000F010F80120F1E710B5002000F00AF86E
:104A8000002000F015F8012000F004F8012000F0EB
:104A90000FF810BD10B5044622464FF400610348DC
:104AA000FDF7F4FBFFF771FF10BD0000001001409F
:104AB00010B5044622464FF480610348FDF7E6FB3B
:104AC000FFF763FF10BD00000010014010B5002487
:104AD0000120FFF7EDFF0120FFF7DCFF05E0601C80
:104AE00084B2B4F57A7F00DB03E0FFF757FF0028BC
:104AF000F5D100BFFFF752FF20B10020FFF7CAFF3A
:104B0000002010BD0020FFF7C5FF0120F9E70000DD
:104B100070B5049C0578194E357005882D0A75709E
:104B20008578B57045882D0AF570057935718588C9
:104B30002D0A75718579B571C5882D0AF571FF2526
:104B400035727572B572F57231730D0A75730D0C8D
:104B5000B5730D0EF5733274150A7574150CB574B2
:104B6000150EF57433751D0A75751D0CB5751D0E82
:104B7000F5753476250A757670BD0000C2000020F8
:104B800070B50446FFF75FFF5420FFF73DFFFFF7C6
:104B90009DFFE120FFF738FFFFF798FFFFF753FF76
:104BA0005520FFF731FFFFF791FFFFF701FF0546A3
:104BB0002E460020FFF717FFFFF7FAFE054605EB2C
:104BC00006202080FFF758FF70BD00000EB50020C2
:104BD00000900190029023482349086081152248E3
:104BE000816001210173002101754FF46021C161D1
:104BF00000201D49486004211B480161FCF73EFB71
:104C000008B1FCF762F80020009001200190062016
:104C1000029069461448FCF7E7F908B1FCF755F82B
:104C2000012000900220019069460F48FCF7DCF952
:104C300008B1FCF74AF80220009003200190694671
:104C40000948FCF7D1F908B1FCF73FF803200090C0
:104C50000420019069460448FCF7C6F908B1FCF746
:104C600034F80EBD00240140E00000201CB50020F7
:104C7000009001900A480B4908600846FCF73CFD8B
:104C800008B1FCF722F8002000900190002269464C
:104C90000448FCF7FAFC08B1FCF717F81CBD00004B
:104CA000007400405401002008B500BF0E48406960
:104CB00040F001000C4948610846406900F00100DD
:104CC000009000BF00BF002211460E20FDF7FAFE43
:104CD0000E20FDF7E7FE002211460F20FDF7F2FE41
:104CE0000F20FDF7DFFE08BD0010024000B585B0C3
:104CF0000020019002900390049000BF5148806909
:104D000040F010004F4988610846806900F01000AB
:104D1000009000BF00BF00BF0846806940F020003F
:104D200088610846806900F02000009000BF00BF45
:104D300000BF0846806940F0040088610846806929
:104D400000F00400009000BF00BF00BF084680696B
:104D500040F0080088610846806900F00800009073
:104D600000BF00BF00224FF440613748FDF78EFAC4
:104D70000122D1033448FDF789FA0022C0213348CB
:104D8000FDF784FA01224FF440613048FDF77EFAC6
:104D9000012204212E48FDF779FA4FF4406001907A
:104DA00011200290012003900320049001A92648BD
:104DB000FDF7BAF84FF4E040019000200290012086
:104DC000039001A92048FDF7AFF84FF4004001908F
:104DD0000120029003900220049001A91A48FDF7D7
:104DE000A3F840200190012002900390022004903B
:104DF00001A91648FDF798F8802001900120029043
:104E000002200390049001A91048FDF78DF84FF49B
:104E10004060019011200290012003900320049033
:104E200001A90A48FDF780F80420019001200290B2
:104E300003900320049001A90548FDF775F805B01B
:104E400000BD000000100240000C014000100140B5
:104E50000014014010B50B480B4908600B4848602E
:104E6000002109488160C1604FF480410161002147
:104E700041618161C1610162FDF714FA08B1FBF77C
:104E800024FF10BD0054004068010020A0860100EE
:104E900010B50F480F4908604FF482704860002138
:104EA0000C488160C1600221016101214161490218
:104EB00081613821C16100210162416281620A2160
:104EC000C162FEF7CBFA08B1FBF7FFFE10BD000090
:104ED00000300140BC0100201CB500200090019072
:104EE0000E480F49086040F2CF20486000210C486E
:104EF000816040F2E731C16000218161FEF78AFEE6
:104F000008B1FBF7E2FE00200090019069460448DA
:104F1000FEF732FE08B1FBF7D8FE1CBD00100040C2
:104F20001402002010B50B480B4908604FF4E13023
:104F30004860002108488160C16001610C21416125
:104F400000218161C161FFF7ADF908B1FBF7BDFE3A
:104F500010BD0000003801405C02002000BFFEE7E9
:104F600000BFFEE700200CE0002106E00022064B17
:104F700003EBC0135A544A1CD1B28029F6DB421C01
:104F8000D0B20828F0DB7047F40300202DE9F0438D
:104F900004460D4616461F467F2C01DDBDE8F08312
:104FA0003F2D00DDFAE7A119802902DDC4F180015F
:104FB000CEB2E919402902DDC5F14001CFB2284641
:104FC00030E0234629E04FEAE07C00EB5C7C4FEACE
:104FD000EC0CDFF85C8008EBCC1C1CF803C002462C
:104FE0004FEAE07800EB58784FEAE808A0EBC809F0
:104FF0004FF0010808FA09F82CEA080C01464FEABC
:10500000E07800EB58784FEAE808DFF8249009EBE5
:10501000C81808F803C0591CCBB2A1199942D2DCB8
:10502000411CC8B2E9198142CBDC00BFB6E70000E1
:10503000F403002070B5002406E0002500E06D1C9C
:10504000B5F57A7FFBD3641CB4F57A7FF5D30120E4
:1050500000F020FA012000F029FA70BD70B5054675
:10506000002411E080212141294009B1012100E003
:105070000021084600F01AFA012000F00BFA002087
:1050800000F008FA601CC4B2082CEBDB012000F031
:1050900001FA002000F0FEF970BD10B5012000F00B
:1050A00005FA012000F0F6F9002000F0FFF90020D9
:1050B00000F0F0F910BD10B5002000F0F7F9012064
:1050C00000F0E8F9012000F0F1F910BD10B5FFF78C
:1050D000B1FFAE2000F0F6F9D52000F0F3F9802002
:1050E00000F0F0F9A82000F0EDF93F2000F0EAF917
:1050F000D32000F0E7F9002000F0E4F9402000F0B0
:10510000E1F9A12000F0DEF9C82000F0DBF9DA2097
:1051100000F0D8F9122000F0D5F9812000F0D2F982
:10512000CF2000F0CFF9D92000F0CCF9F12000F029
:10513000C9F9DB2000F0C6F9302000F0C3F9A42043
:1051400000F0C0F9A62000F0BDF98D2000F0BAF9FA
:10515000142000F0B7F9AF2000F0B4F9FFF702FF18
:1051600000F084F910BD10B50246012000E0504364
:105170000B1EA1F10101FAD110BD70B505460C4618
:1051800045F0B00000F09EF9102141EA141000F043
:1051900099F904F00F0000F095F970BDF8B50646D6
:1051A0000F4614461D46082D0CD1A4F120000E49CF
:1051B00001EB00101023082239460090304600F021
:1051C00081F80FE0062D0DD1A4F1200000EB400086
:1051D000064901EB4000082306223946009030467C
:1051E00000F070F8F8BD0000EC660008DC6C000808
:1051F0002DE9FF5F86B0074614461D46DDF8508056
:10520000169E0022134620462946FBF789FA06D847
:1052100033462B2238460799FFF7C0FF07E0334695
:105220002D2238460799FFF7B9FF85F00045204643
:105230002946FBF731FA82465046FBF70CFA224624
:105240002B46CDE90401FBF71DF904460D460A2063
:105250001599FFF788FF81464846FBF7FCF922467F
:105260002B46CDE90001FBF710F9CDE9020101F071
:10527000F3F9CDE90401FBF70FFA8346BBFBF9F024
:105280008244B919C8B2434652460096079900F0C5
:10529000AFF808F1010101FB0671C8B233462E22B6
:1052A0000799FFF77BFF08F1020101FB0671C8B205
:1052B00000965A46159B079900F09AF80AB0BDE887
:1052C000F09F00002DE9F04707460C4690469946AE
:1052D000DDF820A07F2F01DDBDE8F0873F2C00DD49
:1052E000FAE74B46424621463846FFF74FFE002577
:1052F00070E0002669E0B8197F2800DD67E0E1175B
:1053000004EB517105EBE101072900DDE4E72046DC
:10531000E21704EB527205EBE202344B03EBC212CC
:10532000BB19D25C2146E31704EB5373DB10A4EBEB
:10533000C30305FB086C1AF80CC00CFA03FC42EA24
:105340000C02E31704EB537305EBE303DFF89CC097
:105350000CEBC31307EB060C03F80C20E11704EB6E
:10536000517105EBE101491C072900DD2BE02046C6
:10537000E21704EB527205EBE202521C1B4B03EBEB
:10538000C212BB19D25C2146E31704EB5373DB1046
:10539000A4EBC303C3F1080305FB086C1AF80CC0A7
:1053A0004CFA03FC42EA0C02E31704EB537305EBDF
:1053B000E3035B1CDFF834C00CEBC31307EB060CF4
:1053C00003F80C2000BF701CC6B2464593DB00BF3B
:1053D000681CC5B2A9F10100C11700EB517101228F
:1053E00002EBE101A94284DC00BF75E7F403002071
:1053F0002DE9F0470646894617461D46DDF8208010
:10540000002417E0281B411E0A20FFF7ACFEB7FB63
:10541000F0F00A21B0FBF1F201FB120000F1300ABA
:1054200004FB0861C8B2434652464946FFF7B6FE40
:10543000601CC4B2AC42E5DBBDE8F0872DE9F04169
:105440000646884615461F46002409E02A5D04FBEF
:105450000761C8B23B464146FFF7A0FE601CC4B2DC
:10546000285D0028F2D1BDE8F081000010B50024CD
:105470000BE000212046FFF780FE054901EBC41038
:10548000802100F02FF8601CC4B2082CF1DB10BDA5
:10549000F403002010B5044622464FF48061024810
:1054A000FCF7F4FE10BD0000000C014010B50446EE
:1054B00022464FF400610248FCF7E8FE10BD0000F0
:1054C000000C014010B50446FFF7E7FD7820FFF718
:1054D000C5FD0020FFF7C2FD2046FFF7BFFDFFF727
:1054E000EAFD10BD70B505460E46FFF7D6FD7820E3
:1054F000FFF7B4FD4020FFF7B1FD002404E0285D74
:10550000FFF7ACFD601CC4B2B442F8DBFFF7D3FD7B
:1055100070BD704708B508490968C9084FF47A7228
:10552000B1FBF2F14143009100BF00BF00994A1E58
:1055300000920029F9D108BD3000002000200AE0C7
:10554000002100EB8002054B1A44517000EB8002F1
:105550001A449170401C0328F2DB7047F4070020C6
:10556000F8B504460E4615466068B0F5827F0DD149
:10557000A068B0F5004F03D0A068B0F5806F05D1EA
:105580002068006820F04000216808606068B0F57D
:10559000827F11D1A068B0F5806F0DD13346002213
:1055A00001212046009500F051F898B1606D40F05F
:1055B000200060650320F8BD33460022802120468C
:1055C000009500F043F828B1606D40F02000606560
:1055D0000320F0E70020EEE7F8B504460E46154636
:1055E0003346012202212046009500F02FF828B111
:1055F000606D40F0200060650320F8BD3346002256
:1056000080212046009500F021F828B1606D40F01F
:10561000200060650320F0E70020EEE770B5044647
:105620000D4664232A4621460148FDF7C5FF70BD9B
:10563000BC01002070B504460D4664232A4621466D
:105640000148FEF77AF870BDBC0100202DE9F84F43
:1056500004460D4690461E46DDF82890FCF71CFED9
:10566000A0EB0900371AFCF717FE82462C480068A9
:10567000C0F3CB307843009045E0701C002842D046
:10568000FCF70AFEA0EB0A00B84200D2A7BB2068D4
:10569000406820F0E000216848606068B0F5827FD3
:1056A0000DD1A068B0F5004F03D0A068B0F5806FB1
:1056B00005D12068006820F0400021680860A06AD9
:1056C000B0F5005F0DD100BF2068006820F40050E5
:1056D000216808602068006840F400502168086074
:1056E00000BF012084F8510000BF002084F8500062
:1056F00000BF0320BDE8F88FFFE7009800B900273E
:105700000098401E0090206880682840A84201D17F
:10571000012000E000204045AFD10020EAE7000072
:10572000300000207047000010B51A22314801886F
:10573000314800F075FE304800782F49497800EB79
:1057400001202E4908602C4880782B49C97800EB4D
:1057500001202A494860284800792749497900EB07
:10576000012026498860244880792349C97900EBC3
:1057700001202249C8602048C07B00061E49897B61
:1057800000EB01401C49497B00EB01201A49097BD1
:1057900008441A4908611848C07C00061649897CEB
:1057A00000EB01401449497C00EB01201249097CBF
:1057B0000844124948611048C07D00060E49897DA1
:1057C00000EB01400C49497D00EB01200A49097DAD
:1057D00008440A4988610848007E0749497E00EB71
:1057E00001200649C86103480088401C014908801F
:1057F00010BD000022000020A40000208400002032
:1058000010B5FDF7DFF810BD00B595B028210BA845
:10581000FAF7C1FC142106A8FAF7BDFC1821684666
:10582000FAF7B9FC01200B9000040C9000200D90B9
:1058300001200F9002201290C10313914FF4E01148
:1058400014910BA8FDF7D8FB08B1FBF73EFA0F2027
:10585000069002200790002008904FF48060099085
:1058600000200A90022106A8FDF7A2FA08B1FBF772
:105870002CFA02200090800302906846FDF700FA9F
:1058800008B1FBF722FA15B000BD704710B5024809
:10589000FEF75FFA10BD00001402002010B5026888
:1058A000244B98420ED0244B98420BD0B0F1804F3D
:1058B00008D0224B984205D0214B984202D0214B70
:1058C000984203D122F070024B681A43194B984258
:1058D0000ED0194B98420BD0B0F1804F08D0174B27
:1058E000984205D0164B984202D0164B984203D1ED
:1058F00022F44072CB681A4322F080034C6943EAD9
:10590000040202608B68C3620B688362094B984291
:1059100002D0094B984201D10B6903630123436113
:10592000036903F001031BB1036923F00103036161
:1059300010BD0000002C0140003401400004004074
:1059400000080040000C004070B505466C6A00205D
:10595000E085E0842046FEF731FB70BD00BF00BF4C
:1059600002680C3252E8002F22F4907102680C3267
:1059700042E80013002BF3D100BF00BF00BF026854
:10598000143252E8002F22F001010268143242E87A
:105990000013002BF3D100BF016B01290ED100BF12
:1059A00000BF02680C3252E8002F22F0100102689A
:1059B0000C3242E80013002BF3D100BF202180F805
:1059C000421000210163704710B504462068C0688A
:1059D00020F040002168C860202084F84100204663
:1059E000FEF722FD002010BDF8B5044694F84200F1
:1059F000222875D1A068B0F5805F0CD1206950B91C
:105A00000025A66A20684068C0F308003080A06ABC
:105A1000801CA06215E0A56A0026A068B0F5805F32
:105A200003D0A06828B9206918B920684068287098
:105A300004E02068406800F07F002870A06A401CE5
:105A4000A062E08D401E80B2E085002846D120682B
:105A5000C06820F020002168C8602068C06820F479
:105A600080702168C8602068406920F001002168CA
:105A70004861202084F8420000206063206B0128E8
:105A800026D10020206300BF00BF21680C3151E8FF
:105A9000001F21F0100021680C3141E80002002AAB
:105AA000F3D100BF2068006800F0100010280AD170
:105AB00000BF0020009020680068009020684068C7
:105AC000009000BF00BFA18D2046FEF776FA02E0ED
:105AD0002046FEF7A7FC0020F8BD01E00020FBE710
